:200000000C94AE1E0C94D91E0C94D91E0C94D91E0C94D91E0C94D91E0C94D91E0C94D91E53
:200020000C94D91E0C94D91E0C94BDEA0C9436E90C94D91E0C94D91E0C94D91E0C94D91E30
:200040000C94D91E0C94B9660C94D91E0C94D91E0C94D91E0C94D91E0C94E3650C94F9E786
:200060000C94D91E0C94D91E0C94D91E0C94D91E0C94D91E0C94D91E0C94D91E0C94D91EC8
:200080000C94D91E0C94D91E0C94D91E0C94D91E0C94D91E0C94D91EC75FE05FE05FE05FF3
:2000A000E05FE05FE05FE05FE05FE05FE05FE05FE05FE05FE05FE05FE05FE05FE05FE05F50
:2000C000E05FE05FE05FE05FE05FE05FB45F565F625FC75EE05F905F9C5FE05FE05FDB5E18
:2000E000B25EE05F845FE05FA85F785F6E5FE05FE05FE05F325F3E5F4A5FE05FE05FE05F93
:20010000E05FE05FE05FE05FE05FE05FB45F565F625FC75EE05F905F9C5FE05FE05FDB5ED7
:20012000B25EE05F845FE05FA85F785F6E5FE05FE05FE05F325F3E5F4A5FCDC5FDC535C6C0
:200140005BC7BCCDBCCDBCCDBCCDBCCDBCCDBCCDBCCDBCCD84C6C5C611C7BCCDBCCDBCCD64
:20016000BCCDBCCDBCCDBCCDBCCDBCCDBCCDBCCD9BC89BC89BC8E6C8E6C8E6C831C9BCCD81
:2001800066CA7BC97BC97BC9C4C9C4C9C4C911CA11CA11CABCCDBCCDBCCDBCCDBCCD03C8B3
:2001A00039C8BCCDAFCAF5CA4ACB90CBA7CBD5CB03CC31CC77CCB9CCF9CC40CD74CDBECBCB
:2001C000BCCDBCCDBCCDBCCDBCCDBCCDBCCDBCCDBCCDBCCDBCCDBCCDBCCDBCCDBCCDBCCD8F
:2001E000BCCDBCCDBCCDBCCDBCCDBCCDBCCDBCCD1CC8BCCDBCCDBCCD8CCDA6CDBCCDBCCD5A
:20020000BCCDBCCDC0C5BCCDBCCD2CC608C7BCCD6AC8BCCDBCCDBCCDBCCDBCCDBCCDBCCDFA
:20022000BCCDACC7D6C705A84CCDB2D44EB93836A9020C50B9918688083CA6AAAA2ABE00DF
:200240000000803F00011C1D13FF1A1E1F12FF1B202111FF24FFFF0F0E22230D07062653A8
:200260006574204D6963726F7374657070696E67005761746368646F672066656174757249
:200280006520776173206E6F7420636F6D70696C656420696E746F20746869732076657291
:2002A00073696F6E21004D323531200020746F200053657420766F6C756D65747269632086
:2002C000657874727573696F6E20666F72206578747275646572200044697361626C6564FB
:2002E00020766F6C756D657472696320657874727573696F6E20666F722065787472756460
:20030000657220004D313134200050696E2063616E206E6F7420626520736574206279208B
:200320004D34322C20697320696E2073656E7369746976652070696E73212000496C6C6550
:2003400067616C20532076616C756520666F72204D3432004175746F726574726163743AB7
:2003600000436F6C6420657874727573696F6E20646973616C6C6F77656400436F6C642000
:20038000657874727573696F6E20616C6C6F776564004A616D20646562756767696E673A46
:2003A000004A616D20636F6E74726F6C2064697361626C65643A00473133342000506F7341
:2003C00046726F6D53746570733A00436F6D7044656C74613A0043616C6962726174696F93
:2003E0006E206D6F76656D656E74206973206C696D6974656420746F2031306D6D2E00462E
:2004000069727374206D6F766520746F20746F75636820617420782C793D302C3020746FFF
:20042000206175746F2D736574207261646975732E0043616C6962726174696F6E206D6F30
:2004400076656D656E74206973206C696D6974656420746F2031306D6D2E0043616E6E6F8E
:2004600074207365742072616469757320616E6420666C6F6F722061742073616D65207410
:20048000696D652E0043616C6962726174696F6E20636F6465206973206C696D69746564CC
:2004A00020746F20626F74746F6D20313025206F66205A206865696768740052656C6174DE
:2004C00069766520706F736974696F6E696E67004162736F6C75746520706F736974696F9F
:2004E0006E696E67006578656375746547436F6465202F20717565756544656C74614D6F61
:2005000076652072657475726E73206572726F7200526F642052616469757320736574204A
:20052000746F3A2000582028412920746F77657220666C6F6F722073657420746F3A200018
:20054000592028422920746F77657220666C6F6F722073657420746F3A20005A2028432925
:2005600020746F77657220666C6F6F722073657420746F3A20004649524D574152455F4E15
:20058000414D453A52657065746965725F302E39322E35204649524D574152455F55524CB4
:2005A0003A68747470733A2F2F6769746875622E636F6D2F72657065746965722F52657061
:2005C00065746965722D4669726D776172652F2050524F544F434F4C5F56455253494F4E52
:2005E0003A312E30204D414348494E455F545950453A44656C7461204558545255444552C5
:200600005F434F554E543A312052455045544945525F50524F544F434F4C3A3300446562BE
:2006200075673A006F6B000D0A004E414E00494E46004572726F723A00496E666F3A005798
:2006400061726E696E673A00526573656E643A004563686F3A006F6B200057726F6E672066
:20066000636865636B73756D004D697373696E6720636865636B73756D00466F726D617471
:20068000206572726F7200446F6E65207072696E74696E672066696C65002058002059004E
:2006A000205A00204500204600205300205000204900204A0020520053442072656164205A
:2006C0006572726F72004572726F723A6578706563746564206C696E65200020676F7420E8
:2006E00000736B69702000424C4B2000737461727400506F77657255700045787465726EB4
:20070000616C2052657365740042726F776E206F7574205265736574005761746368646F7C
:200720006720526573657400536F66747761726520526573657400556E6B6E6F776E20634E
:200740006F6D6D616E643A00467265652052414D3A00583A0020583A0020593A00205A3A7C
:200760000020453A00543A0020423A0020403A002054002040002042403A0020524157005C
:200780003A002F00202F0053706565644D756C7469706C793A00466C6F774D756C74697003
:2007A0006C793A0046616E73706565643A005072696E7465642066696C616D656E743A003A
:2007C0005072696E74696E672074696D653A006D20002064617973200020686F75727320D6
:2007E00000206D696E00496E76616C696420617263002C002000593A005A3A0045303A0056
:2008000045313A004D53312C4D53322050696E7300536574206F75747075743A200047659C
:200820007420496E7075743A200020746F200020697320004820004C2000785F6D696E3A52
:2008400000785F6D61783A00795F6D696E3A00795F6D61783A007A5F6D696E3A007A5F6DF6
:2008600061783A007A325F6D696E6D61783A004A65726B3A00205A4A65726B3A00206C699B
:200880006E6561722073746570733A00207175616472617469632073746570733A002C2076
:2008A00073706565643D00454550524F4D2075706461746564006C696E656172204C3A00FA
:2008C00020717561647261746963204B3A0046696C616D656E7420736C697070696E6700DF
:2008E0002F2F20616374696F6E3A7061757365002F2F20616374696F6E3A726573756D65DD
:20090000004D6561737572656D656E742072657365742E004D6561737572652F64656C7436
:20092000612028537465707329203D004D6561737572652F64656C7461203D004D6561738B
:2009400075726564206F726967696E207365742E204D6561737572656D656E742072657395
:2009600065742E004F726967696E206D6561737572656D656E742063616E6E6F74206265B8
:20098000207365742E2020557365206F6E6C79205A2D43617274657369616E20287374728C
:2009A000616967687420757020616E6420646F776E29206D6F76656D656E747320616E6480
:2009C0002074727920616761696E2E00496E76616C69642064656C746120636F6F726469B9
:2009E0006E617465202D206D6F76652069676E6F726564004C6576656C696E672063616C9D
:200A0000633A00546F77657220313A00546F77657220323A00546F77657220333A00416CB5
:200A2000706861204128323130293A00416C706861204228333330293A00416C706861208F
:200A400043283930293A0044656C74612052616469757320412830293A0044656C746120C7
:200A600052616469757320422830293A0044656C74612052616469757320432830293A0061
:200A80004E6F206D6F766520696E2064656C7461207365676D656E742077697468203E2034
:200AA00031207365676D656E742E20546869732073686F756C64206E6576657220686170C4
:200AC00070656E20616E64206D617920636175736520612070726F626C656D21005461720E
:200AE00067657445787472005461726765744265643A00504944204175746F74756E6520F5
:200B000073746172740020626961733A200020643A2000206D696E3A2000206D61783A2032
:200B200000204B753A20002054753A200020436C61737369632050494400204B703A200024
:200B4000204B693A2000204B643A2000504944204175746F74756E65206661696C65642146
:200B60002054656D706572617475726520746F206869676800504944204175746F74756E17
:200B800065206661696C6564212074696D656F757400504944204175746F74756E6520664B
:200BA000696E6973686564202120506C61636520746865204B702C204B6920616E64204B11
:200BC0006420636F6E7374616E747320696E2074686520436F6E66696775726174696F6EE4
:200BE0002E68206F7220454550524F4D004D54454D503A006865617465642062656400659E
:200C00007874727564657220003A2074656D702073656E736F7220646566656374003A20F7
:200C2000776F726B696E67005072696E7465722073657420696E746F206472792072756EA5
:200C4000206D6F646520756E74696C207265737461727421004175746F6C6576656C206DFF
:200C60006174726978207265736574004175746F6C6576656C696E6720656E61626C65642F
:200C8000004175746F6C6576656C696E672064697361626C6564005472616E73666F726D51
:200CA0006174696F6E206D61747269783A005A2D70726F6265206661696C6564005A2D700F
:200CC000726F6265206D61783A005072696E746572206865696768743A007761697400431D
:200CE0006F6174696E6720746869636B6E657373205B6D6D5D00436F6E66696775726174C2
:200D0000696F6E2073746F72656420746F20454550524F4D2E00436F6E66696775726174B1
:200D2000696F6E206C6F616465642066726F6D20454550524F4D2E00436F6E6669677572BD
:200D40006174696F6E20726573657420746F2064656661756C74732E0050726F746F636FA6
:200D60006C2076657273696F6E206368616E6765642C20757067726164696E670045505203
:200D80003A3020004550523A3120004550523A3220004550523A33200042617564726174AD
:200DA00065004C616E67756167650046696C616D656E74207072696E746564205B6D5D001F
:200DC0005072696E74657220616374697665205B735D004D61782E20696E61637469766581
:200DE0002074696D65205B6D732C303D6F66665D0053746F702073746570706572206166E8
:200E000074657220696E6163746976697479205B6D732C303D6F66665D0058206D696E20BB
:200E2000706F73205B6D6D5D0059206D696E20706F73205B6D6D5D005A206D696E20706F10
:200E400073205B6D6D5D0058206D6178206C656E677468205B6D6D5D0059206D6178206C10
:200E6000656E677468205B6D6D5D005A206D6178206C656E677468205B6D6D5D00582062BC
:200E800061636B6C617368205B6D6D5D0059206261636B6C617368205B6D6D5D005A206289
:200EA00061636B6C617368205B6D6D5D004D61782E206A65726B205B6D6D2F735D00416391
:200EC00063656C65726174696F6E20666163746F7220617420746F70205B252C3130303D4B
:200EE0006C696B6520626F74746F6D5D00416363656C65726174696F6E205B6D6D2F735E1C
:200F0000325D0054726176656C20616363656C65726174696F6E205B6D6D2F735E325D00E6
:200F2000537465707320706572206D6D004D61782E206665656472617465205B6D6D2F7396
:200F40005D00486F6D696E67206665656472617465205B6D6D2F735D00446961676F6E616B
:200F60006C20726F64206C656E677468205B6D6D5D00486F72697A6F6E74616C20726F64BD
:200F80002072616469757320617420302C30205B6D6D5D005365676D656E74732F732066E8
:200FA0006F72207072696E74696E67005365676D656E74732F7320666F7220747261766534
:200FC0006C00546F776572205820656E6473746F70206F6666736574205B73746570735D51
:200FE00000546F776572205920656E6473746F70206F6666736574205B73746570735D009C
:20100000546F776572205A20656E6473746F70206F6666736574205B73746570735D004D2D
:201020006178207072696E7461626C6520726164697573205B6D6D5D00436F72722E206454
:201040006961676F6E616C2041205B6D6D5D00436F72722E20646961676F6E616C204220FD
:201060005B6D6D5D00436F72722E20646961676F6E616C2043205B6D6D5D004F5053206F25
:201080007065726174696F6E206D6F6465205B303D4F66662C313D436C61737369632C326C
:2010A0003D466173745D004F5053206D6F766520616674657220782520726574726163743B
:2010C000205B255D004F5053206D696E2E2064697374616E636520666F722066696C2E2014
:2010E00072657472616374696F6E205B6D6D5D004F50532072657472616374696F6E206C2A
:20110000656E677468205B6D6D5D004F50532072657472616374696F6E206261636B6C613C
:201120007368205B6D6D5D004265642048656174204D616E61676572205B302D335D0042F0
:20114000656420504944206472697665206D61780042656420504944206472697665206D5A
:20116000696E004265642050494420502D6761696E004265642050494420492D6761696E17
:20118000004265642050494420442D6761696E0042656420504944206D61782076616C75D1
:2011A00065205B302D3235355D00737465707320706572206D6D006D61782E206665656441
:2011C00072617465205B6D6D2F735D007374617274206665656472617465205B6D6D2F738A
:2011E0005D00616363656C65726174696F6E205B6D6D2F735E325D0068656174206D616EC6
:2012000061676572205B302D335D00504944206472697665206D617800504944206472690E
:201220007665206D696E0050494420502D6761696E2F646561642D74696D6500486561743B
:20124000657220646561642D74696D65006E6120666F7220646561642074696D6520637483
:20126000726C0050494420492D6761696E0050494420442D6761696E00504944206D61782E
:201280002076616C7565205B302D3235355D00582D6F6666736574205B73746570735D002D
:2012A000592D6F6666736574205B73746570735D005A2D6F6666736574205B737465707362
:2012C0005D0074656D702E2073746162696C697A652074696D65205B735D0074656D702EE8
:2012E00020666F722072657472616374696F6E207768656E2068656174696E67205B435D3F
:201300000064697374616E636520746F2072657472616374207768656E2068656174696EFF
:2013200067205B6D6D5D00657874727564657220636F6F6C6572207370656564205B302D74
:201340003235355D00616476616E6365204B205B303D6F66665D00616476616E6365204C99
:20136000205B303D6F66665D00534420696E6974206661696C006572726F722077726974B6
:20138000696E6720746F2066696C6500426567696E2066696C65206C69737400456E642094
:2013A00066696C65206C6973740046696C65206F70656E65643A002053697A653A004669B8
:2013C0006C652073656C65637465640066696C652E6F70656E206661696C65640053442017
:2013E0007072696E74696E67206279746520004E6F74205344207072696E74696E67006FAC
:2014000070656E206661696C65642C2046696C653A200057726974696E6720746F20666908
:201420006C653A2000446F6E6520736176696E672066696C652E0046696C652064656C652B
:201440007465640044656C6574696F6E206661696C6564004469726563746F7279206372EC
:201460006561746564004372656174696F6E206661696C6564005344206572726F72436F1C
:2014800064653A00486561746572206465636F75706C6564004F6E65206865617465722040
:2014A0007365656D73206465636F75706C65642066726F6D20746865726D6973746F7220D5
:2014C0002D2064697361626C696E6720616C6C20666F72207361666574792100436F6E66FF
:2014E00069673A00457874722E0007061C151C141E00002243141F1F137A15EA153E16AE2B
:2015000016FE16000000007617FE170A195A19D619521A206465672E204300206D65617367
:201520007572656420004572726F723A436F756C64206E6F7420686F6C642074656D70652D
:201540007261747572652000206D730020616674657220004572726F723A54656D702E205E
:2015600072616973656420746F20736C6F772E2052697365203D200000000000A00F5C00A2
:201580006009690010097900C0088C007008A2002008BD00D007DE008007050130073401E6
:2015A000E0066D019006B20140060702F0056D02A005E80250057B0300052B04B004F80495
:2015C0006004EB06C003350920037F0B8002650DE001B00E40011D0FF000480FC8006C0F7E
:2015E000A000ED0F60FFFE0F48FE0400801AD8009808AC012007800250065403C80528048B
:201600005805FC040005D005B004A4066804780728044C08E8032009B003F4097003C80AC1
:2016200038039C0BF802700CB002440D6802180E0802EC0E8801C00F8800F00F00000400D8
:20164000001B54006009640010097400C008840070089C002008B800D007D800800700014A
:2016600030072C01E00668019006AC0140060002F0056802A005E00250057403000524044D
:20168000B004F0046004DC051004E406C0030408700330092003780B8002600DE001A80EB8
:2016A0004001680FA000C00F0000E80F60FF0400700DD8004804AC0158038002D80254034D
:2016C000800228043802FC040002D005C801A4069801780770014C08480120091801F40973
:2016E000F000C80AC8009C0BA000700C7000440D3800180E0000EC0EA8FFC00FE8FE040024
:20170000D02F9000600B1C012009A801F80734023807C002A8064C033806D803D80564044F
:201720008005F00438057C05F8040806B8049406800420074804AC0718043808E803C40855
:20174000B80350098803DC095803680A2803F40AF802800BC8020C0C9802980C6002240DD7
:201760002802B00DE8013C0E9801C80E4001540FB800E00FF2FF0000401F450060094F0048
:2017800010095C00C0086B0070087D0020089200D007AC008007CC003007DE00E0062301FD
:2017A00090065E014006A601F005FF01A0056D025005F30200059603B0045A04600440059B
:2017C00010044806C0036E077003A8082003EB09D002230B8002410C3002390DE001040EFB
:2017E0009001A20E4001170FF000690FA000A20F5000C60F0000DD0FB0FFEB0F60FF04006B
:20180000681D4C00500B94005809DC0050082401A8076C012807B401C006FC0170064402CF
:2018200028068C02F005D402B8051C03880564035805AC033005F40310053C04E804840450
:20184000C804CC04A804140590045C057004A4055804EC053804340620047C060804C406D6
:20186000F0030C07D8035407C8039C07B003E40798032C08800374087003BC0858030409B3
:2018800048034C09300394091803DC090803240AF0026C0AE002B40AC802FC0AB002440BC6
:2018A000A0028C0B8802D40B70021C0C5802640C4002AC0C2802F40C10023C0DF001840D21
:2018C000D801CC0DB801140E98015C0E7001A40E4801EC0E1801340FD8007C0F8800C40FF8
:2018E0000800FC0F00000000000000000000000000000000000000000000000000000000D5
:201900000000000000000000000004000016D800C006AC0178058002C004540348042804D0
:20192000E803FC049803D0055003A40618037807D8024C08A80220097002F4093802C80A39
:2019400008029C0BD001700C9001440D5001180EF800EC0E8800C00F00000400401D9000F6
:2019600060091C01B007A801D00634023806C002C8054C036805D80318056404D804F004BC
:2019800098047C05600408063004940600042007D003AC07A80338088003C408580350094B
:2019A0003003DC090803680AE002F40AB802800B88020C0C6002980C3002240DF801B00DAC
:2019C000C0013C0E8001C80E3001540FB800B40F2800E00F00000400081D900058091C0148
:2019E000B007A801C80634023006C002C0054C036805D80318056404D004F00498047C05C5
:201A0000600408063004940600042007D003AC07A80338088003C408580350093003DC09CF
:201A20000803680AD802F40AB002800B88020C0C6002980C3002240DF801B00DC0013C0E48
:201A40008001C80E3001540FB800B40F2800E00F0000000000008C030800AD03D00CD6030D
:201A6000A000F703F00018044001380490015904E0017A0430029A048002CB2BD002FC04DC
:201A800070032605C003860630079709A00F750D201C520E401F1F0F6022FF0F803E0000DA
:201AA000000000000000000000000000000000000000000000000000000000000000000026
:201AC00000000000000000000000000000005344206572726F72206669786564005344203E
:201AE0006572726F7220646964206E6F74207265636F76657221005344205265616420452B
:201B000072726F720042696E6172793A00436F6D6D616E6442756666657200000000000048
:201B2000000000000000000000000024F403D950C38EB1C2A23D96828B3582127AE3728102
:201B40006CCB66A861015DC758EB546151204E1E4B5648C14559431A41013F093D2F3B719E
:201B600039CD374036C93465331432D430A32F802E6B2D632C672B752A8E29B028DC271059
:201B8000274B268F25D9242B248223E0224322AC211A218D200420801F001F841E0C1E97A7
:201BA0001D261DB81C4E1CE61B821B201BC11A641A0A1AB2195D190A19B9186A181C18D175
:201BC0001788174017FA16B51673163116F115B31576153A150015C7148F1458142214EE82
:201BE00013BA13881356132513F612C71299126C1240121512EB11C11198117011481121D4
:201C000011FB10D610B1108D106910461024100210E10FC00FA00F800F610F420F230F0659
:201C20000FE80ECB0EAF0E930E770E5C0E410E270E0D0EF30DDA0DC10DA80D900D780D60EE
:201C40000D490D320D1B0D050DEF0CD90CC30CAE0C990C850C700C5C0C480C350C210C0E55
:201C60000CFB0BE80BD60BC40BB20BA00B8E0B7D0B6B0B5A0B4A0B390B290B180B080BF850
:201C80000AE90AD90ACA0ABB0AAC0A9D0A8E0A800A710A630A550A470A390A2C0A1E0A1102
:201CA0000A040AF709EA09DD09D009C409B709AB099F09920987097B096F09630958094C31
:201CC00009410936092B09200915090A090009F508EB08E008D608CC08C208B808AE08A46D
:201CE000089A08900887087D0874086B08610858084F0846083D0834082C0823081A08121D
:201D00000809080108F807F007E807E007D807D007C807C007B807B007A807A1070000427A
:201D20000FA1071605D0030D038B022E02E801B2018601630145012C0117010401F40069BD
:201D40006E20717565756544656C74614D6F766520746F2063616C63756C61746544656C69
:201D600074615375625365676D656E74732072657475726E73206572726F722E00207A3A9F
:201D80000020793A0020783A00432068697420666C6F6F720043706F7320782073717561AD
:201DA0007265200043706F732078207374657073200043706F732079207371756172652091
:201DC0000043706F7320792073746570732000422068697420666C6F6F720042706F7320C9
:201DE0007820737175617265200042706F732078207374657073200042706F73207920733F
:201E00007175617265200042706F7320792073746570732000412068697420666C6F6F7200
:201E20000041706F73207820737175617265200041706F732078207374657073200041705B
:201E40006F73207920737175617265200041706F73207920737465707320006D6F76655292
:201E6000656C617469766544697374616E6365496E5374657073202F20717565756544654A
:201E80006C74614D6F76652072657475726E73206572726F72004D617854656D703A0044B3
:201EA00069616D657465723A00416363656C65726174696F6E3A004D617853706565643AAC
:201EC000004A65726B3A004D617842656454656D703A005072696E746572547970653A4437
:201EE000656C7461005A54726176656C416363656C3A005954726176656C416363656C3A89
:201F0000005854726176656C416363656C3A005A5072696E74416363656C3A0059507269EC
:201F20006E74416363656C3A00585072696E74416363656C3A005A53697A653A00595369F2
:201F40007A653A005853697A653A005A4D61783A00594D61783A00584D61783A005A4D6900
:201F60006E3A00594D696E3A00584D696E3A004A65726B58593A005072696E746C696E6520
:201F800043616368653A00454550524F4D3A004175746F6C6576656C3A005A50726F6265F4
:201FA0003A00436173654C69676874733A00537570706F72744C6F63616C46696C616D6590
:201FC0006E746368616E67653A00537570706F72744731304731313A005A486F6D65446967
:201FE000723A0059486F6D654469723A0058486F6D654469723A00536F6674776172655025
:202000006F7765725377697463683A004C43443A0046616E3A005344436172643A00486503
:20202000617465644265643A004D6978696E6745787472756465723A004E756D45787472F1
:20204000756465723A0042617564726174653A004E6F2063617365206C69676874730062AE
:20206000736469723A00686F6D65417869732000686F6D655941786973202F207175657550
:202080006544656C74614D6F76652072657475726E73206572726F7200686F6D6558417823
:2020A0006973202F20717565756544656C74614D6F76652072657475726E73206572726F24
:2020C00072004E65656473206C616E67756167652073656C656374696F6E005072696E7448
:2020E00065723A3A736574757020004175746F726574726163743A006D6F7665546F52654B
:20210000616C202F20717565756544656C74614D6F76652072657475726E73206572726FD2
:2021200072006D6F7665546F202F20717565756544656C74614D6F76652072657475726EDE
:2021400073206572726F72006973506F736974696F6E416C6C6F7765642000656E6473748B
:202160006F7073206869743A2000005344207072696E742073746F707065642062792075BB
:202180007365722E00000000002110422063308440A550C660E770088129914AA16BB18C95
:2021A000C1ADD1CEE1EFF13112100273325222B5529442F772D662399318837BB35AA3BD16
:2021C000D39CC3FFF3DEE36224433420040114E664C774A44485546AA54BB528850995EE56
:2021E000E5CFF5ACC58DD55336722611163006D776F6669556B4465BB77AA719973887DFD6
:20220000F7FEE79DD7BCC7C448E5588668A7784008611802282338CCC9EDD98EE9AFF9488D
:202220008969990AA92BB9F55AD44AB77A966A711A500A333A122AFDDBDCCBBFFB9EEB7915
:202240009B588B3BBB1AABA66C877CE44CC55C222C033C600C411CAEED8FFDECCDCDDD2AD5
:20226000AD0BBD688D499D977EB66ED55EF44E133E322E511E700E9FFFBEEFDDDFFCCF1BD5
:20228000BF3AAF599F788F8891A981CAB1EBA10CD12DC14EF16FE18010A100C230E32004C9
:2022A00050254046706760B9839893FBA3DAB33DC31CD37FE35EF3B1029012F322D2323515
:2022C00042145277625672EAB5CBA5A89589856EF54FE52CD50DC5E234C324A01481046655
:2022E00074476424540544DBA7FAB79987B8975FE77EF71DC73CD7D326F2369106B01657D5
:20230000667676154634564CD96DC90EF92FE9C899E9898AB9ABA94458654806782768C08C
:2023200018E1088238A3287DCB5CDB3FEB1EFBF98BD89BBBAB9ABB754A545A376A167AF114
:202340000AD01AB32A923A2EFD0FED6CDD4DCDAABD8BADE89DC98D267C076C645C454CA2D4
:202360003C832CE01CC10C1FEF3EFF5DCF7CDF9BAFBABFD98FF89F176E367E554E745E93D4
:202380002EB23ED10EF01E7C3C3E5E2B3D3F2F5B5D3B2C2A225C004E6F206572726F72201A
:2023A000666F756E642E0043616E2774206F70656E20726F6F74206469726563746F72797B
:2023C0002E00496E76616C696420666F726D61742C207265666F726D61742053442E004E80
:2023E0006F20636172642C2077726F6E6720636869702073656C6563742070696E2C206FB5
:2024000072205350492070726F626C656D3F0043616E277420616363657373205344206375
:202420006172642E20446F206E6F74207265666F726D61742E000000FF0000000001010044
:20244000000000FF00000310270200AD260310270200B1260100000100B526020000080074
:20246000B72603ED030400C72603EE030400CF2603EF030400D72603FA030400DF2603FBB1
:20248000030400E72603FC030400EF260200000900F726020000060009270200000900158D
:2024A000275265717565737450617573653A0055495F414354494F4E5F5345545F4D45419C
:2024C00053555245445F4F524947494E200055495F414354494F4E5F484F4D455F5A200016
:2024E00055495F414354494F4E5F484F4D455F59200055495F414354494F4E5F484F4D457E
:202500005F58200055495F414354494F4E5F484F4D45414C4C20008025000040380000008B
:202520004B00008070000000960000C0DA000000E10000002C010008B2010000C2010000A4
:20254000F401000084030090D0030000E803000008070020A1070000100E0040420F0060CB
:20256000E316000000000055495F414354494F4E5F45504F534954494F4E200055495F4130
:202580004354494F4E5F5A504F534954494F4E5F46415354200055495F414354494F4E5FC9
:2025A00059504F534954494F4E5F46415354200055495F414354494F4E5F58504F5349549F
:2025C000494F4E5F46415354200055495F414354494F4E5F5A504F534954494F4E2000550A
:2025E000495F414354494F4E5F59504F534954494F4E200055495F414354494F4E5F585066
:202600004F534954494F4E20000200000900272700000239270000A200402747274E275579
:202620002782000001005C27030004002064656320002064656620000000003FCDCC4C3D2A
:202640000AD7A33B6F12033A526570657469657220302E39322E35004D6963726F204465AE
:202660006C746100654D6F74696F6E20546563680000401454040E15041C000000040A0499
:202680000000000000001F1F1F1F1F0000001F1111111F0000040A0A0A0E1F1F0E001C1F77
:2026A00011111F0000110A0411040A11115E27672770277927822782278B2794279D27A606
:2026C00027AF27B827C127CA27D327DC27E527EE27F7270028092812281B2824282D28365C
:2026E000283F28482851285A2863286C2875287E288728902899288227A228AB28B428BD77
:2027000028C628CF28D828E1288227EA28F328FC2805290E298227A22817292029292932C4
:20272000293B294429052982274D298B2756295F29682971297A29832902000008008C2960
:2027400000000004009C290000000400A4290000000400AC290000000400B429BC29000040
:202760000000000000A50000000000000000A60000000000000000A7000000000000000067
:20278000A800000003E80300000A00000003F50301024800000003F6030204490000000305
:2027A000F70304004A00000002C5290200C900000003F80301004B00000003F90300014C80
:2027C00000000003F40301024D000000000000000057000000000000000058000000000000
:2027E0000000005900000000000000005A00000000000000005B00000000000000005C006F
:20280000000000000000005D00000000000000005E00000000000000005F0000000000009E
:20282000000060000000000000000061000000000000000062000000000000000063000012
:20284000000000000000640000000000000000650000000000000000660000000000000049
:20286000006700000000000000006800000000000000006900000000000000006A000000B6
:2028800000000000006B00000000000000006C00000000000000006D0000000000000000F4
:2028A0006E00000003FD03001013000000041F040000B00000000448040000B100000003A9
:2028C000370400001700000003470400001800000003380400001A00000003310400101B84
:2028E00000000003430400101C000000046104000024000000046204000025000000033A09
:202900000400002800000002CC2900002300000003440400002E00000002772400001E003D
:20292000000002622400001D000000027E2400002000000002692400001F000000028524D5
:20294000000022000000027024000021000000028C2400000B000000029A2400000E000013
:202960000002932400000F00000002D32900007D000000025B2400001000000002DA29007E
:20298000001100000002E12900000D008227E829F129FA29032A0C2A152A1E2A272A302A81
:2029A000392A422A4B2A542A5D2A662A6F2A782A812A8A2A932A9C2AA52AAE2AB72A03A4F2
:2029C00026000000000200000300BF2A03F0030400C52A0200000800CD2A0200000500DD15
:2029E0002A0200000B00E72A0000042D04000093000000042204200094000000042304209E
:202A0000009700000004240420009800000004250420009900000004260420009A0000006D
:202A2000042F0400009B0000000000000000EB0000000000000000ED0000000000000000EC
:202A4000EE0000000000000000F300000000000000005700000000000000005B00000000E3
:202A6000000000005F0000000000000000F30000000000000000AC0000000000000000AFA9
:202A80000000000000000000F40000000000000000F30000000000000000C300000000008C
:202AA000000000F00000000000000000C40000000000000000F100456E676C69736800FDAA
:202AC0002A062B0F2B182B212B2A2B332B82273C2B452B4E2B572B602B692B722B82277BC4
:202AE0002B842B8D2B962B82279F2BA82BB12BBA2BC32B1026CC2BD52BDE2BE72B00000145
:202B000000000000C900000003E80300000400000003542402000300000000000000006F0B
:202B20000000000000000000700000000000000000AB0000000000000000F2000000045232
:202B40000400007E000000031A0408007F000000031B04000080000000031C040000810005
:202B60000000031D04000082000000031E0400008300000003B4040000D200000003320441
:202B800000003C00000003330400003D00000003340400003E00000003350400003F00008E
:202BA0000002F02B00008A00000002F72B0000E400000002FE2B00003900000002052C00CF
:202BC000004E000000020C2C00000F00000003060400003A00000003070400003B000000CE
:202BE00002132C0000B5000000021A2C0000BA000200000400212C0200000200292C02002F
:202C00000004002D2C0200000300352C02000011003B2C02000005005D2C0200000B006773
:202C20002C82277D2C862C8F2C8227BC298227982CA12CAA2C8227B32CBC2C8227C52CCE33
:202C40002CD72CE02CE92CF22CFB2CE829F129FA29032A0C2A152A042D0D2D1E2A8227A2F1
:202C600028162D1F2D282D8227312D3A2D432D4C2D17292029292932293B294429000004E6
:202C8000100400008B00000002552D000084000000025C2D000087000000040A0400003237
:202CA000000000040D04000036000000040E040000370000000416040000520000000413F5
:202CC0000400005600000004290400008C000000042C0400008D000000042B0400008E005B
:202CE0000000042A0400008F000000042E04000090000000044D040000BC000000044C04E8
:202D00000000BB00000004220440009500000004260440009600000002632D000022000041
:202D200000026A2D00002100000003AC0F0000B400000003AD0F0000B600000003AE0F0032
:202D400000B700000003AF0F0000B800000003B00F0000B9000320040200712D03580402A0
:202D600000752D0356040400792D0355040400812D892D922D9B2DA42DAD2DB62DBF2DC81D
:202D80002DD12DDA2DE32DEC2D0000000000000085000000000000000086000000000000CD
:202DA00000008800000000000000008900000000000000006B00000000000000006C00002B
:202DC0000000000000006D00000000000000006E00000000000000005F00000000000000B9
:202DE0000060000000000000000061000000000000000062000B2E00000000000000000077
:202E000000000000000000000000FF17301A301E3022302630293035303E304330493051C3
:202E200030583067306B30793082308B3093309D30A830B130B830BF30C630D230DE30E983
:202E400030F230FE300E311431203126313231383144314E316131743187319A31AA31BAB7
:202E600031CA31D931E831F73100320C32183224322E323A32463252325B326732733279BF
:202E800032863292329E32AA32B632C232CE32DE32EB32FA3209331833273331333C3348A7
:202EA00033573364336F337B3384338E339833A233AA33B533C033CB33D433DD33EA33F775
:202EC00033F83301340E341B341C34253432343F34403449345634633464346D347A3487CC
:202EE00034883491349E34AB34AC34B534C434CD34DD34E634F634FF340F35183528353103
:202F00003541354A355A35623571357E35883592359C35A535B635C635D235E035F035FCB6
:202F200035043611361E362B36363640364E365A36673670367A3687369736A136AB36B843
:202F400036C536D136DE36EB36F436F836033714372037273735373C374A3751375F376C88
:202F600037773788379937AA37BB37CC37DC37EE37F93705380D3816381D3824382B383982
:202F80003843385438663871387D388C38933895389638A438B538BD38C838D238D938E40F
:202FA00038F538FE38073912391E392E393B394539563966396D397A398A3993399B39A7AA
:202FC00039BA39BB39C639CB39D239E239F139FC39033A103A193A2A3A3B3A513A693A72F6
:202FE0003A763A893A933AA43AB53AC13AC53ACB3AD93ADD3ADE3AE83AEE3AF53A083B1B72
:203000003B2E3B3F3B503B613B743B873B9A3BA83BB33BC03BCD3B4F6E004F6666004E2FFC
:203020004100596573004E6F005072696E74696E672E2E2E005072696E74696E6700496494
:203040006C65004E6F205344002D4552524F522D004261636B200100517569636B207365C0
:203060007474696E677300256F6500436F6E66696775726174696F6E00506F736974696F7F
:203080006E004578747275646572005344206361726400446562756767696E6700486F6D6E
:2030A000652064656C746100486F6D6520616C6C00486F6D65205800486F6D652059004854
:2030C0006F6D65205A005072656865617420504C41005072656865617420414253004C69FB
:2030E000676874733A256C6F00436F6F6C646F776E0053657420746F206F726967004469EE
:203100007361626C652073746570706572005820706F73005820706F732E206661737400F5
:203120005920706F73005920706F732E2066617374005A20706F73005A20706F732E2066B1
:2031400061737400457874722E20706F73004265642074656D703A2565622F25456202439D
:203160000054656D702E2031203A2565302F25453002430054656D702E2032203A256531ED
:203180002F25453102430054656D702E2033203A2565322F2545320243005475726E2065B5
:2031A0007874722031206F6666005475726E20657874722032206F6666005475726E20659E
:2031C0007874722033206F6666002558302053656C20657874722031002558312053656CCC
:2031E00020657874722032002558322053656C2065787472203300536574204F7269670094
:203200005072696E7420583A256178005072696E7420593A256179005072696E74205A3A71
:2032200025617A005072696E743A25617A004D6F76652058203A256158004D6F76652059F0
:20324000203A256159004D6F7665205A203A25615A004D6F76653A25615A004A65726B208D
:2032600020203A25616A005A2D4A65726B203A25614A00416363656C0053746F726520455D
:203280004550524F4D004C6F616420454550524F4D004563686F2020203A25646F00496E7B
:2032A000666F2020203A256469004572726F7273203A256465004472792072756E3A256481
:2032C0006400254F30204F5053206F666600254F31204F505320636C617373696300254F4C
:2032E00032204F5053206661737400526574726163742020203A254F72004261636B736C17
:203300002E2020203A254F62004D696E2E6469737420203A254F64004D6F766520616674C5
:2033200065723A254F6100416E7469206F6F7A65005072696E742066696C650050617573D8
:2033400065207072696E7400436F6E74696E7565207072696E7400556E6D6F756E742063B0
:20336000617264004D6F756E7420636172640044656C6574652066696C6500466565647250
:20338000617465004D617820583A256678004D617820593A256679004D6178205A3A2566D6
:2033A0007A004D61783A25667A00486F6D6520583A25665800486F6D6520593A25665900F0
:2033C000486F6D65205A3A25665A00486F6D653A25665A00583A257830206D6D004D696EA6
:2033E00020656E64703A257378004D617820656E64703A2573580000593A257831206D6D4A
:20340000004D696E20656E64703A257379004D617820656E64703A25735900005A3A25782D
:2034200032206D6D004D696E20656E64703A25737A004D617820656E64703A25735A000010
:20344000583A257830206D6D004D696E20656E64703A257378004D617820656E64703A2592
:2034600073580000593A257831206D6D004D696E20656E64703A257379004D617820656ED7
:2034800064703A25735900005A3A257832206D6D004D696E20656E64703A25737A004D61EB
:2034A0007820656E64703A25735A0000453A257833206D6D003120636C69636B203D203153
:2034C000206D6D00583A257830206D6D004D696E3A257378204D61783A25735800593A2503
:2034E0007831206D6D004D696E3A257379204D61783A257359005A3A257832206D6D004D9F
:20350000696E3A25737A204D61783A25735A00583A257830206D6D004D696E3A257378202F
:203520004D61783A25735800593A257831206D6D004D696E3A257379204D61783A25735900
:20354000005A3A257832206D6D004D696E3A25737A204D61783A25735A0046616E20737014
:20356000640046616E207370643A254673252525005475726E2066616E204F6666005365F3
:2035800074203235252525005365742035302525250053657420373525252500536574202E
:2035A00066756C6C005374657070657220696E616374697665004469732E20616674657282
:2035C0003A20256973005B6D696E5D20303D4F6666004D61782E20696E6163746976650025
:2035E0004469732E2061667465723A20256970005B6D696E5D20303D4F66660047656E65D0
:2036000072616C0042617564726174653A256F630053746570732F4D4D3A2553650053745C
:203620006172742046523A255866004D61782046523A25584600416363656C3A25584100C3
:20364000537461622E54696D653A25587700416476206C696E3A25586C0041647620717533
:2036600061643A255861004374726C3A2558680050494420503A25587000446561647469FA
:203680006D653A25587000436F6E74726F6C2050574D3A25584D0050494420493A255869D2
:2036A0000050494420443A2558640044726976204D696E3A25586D0044726976204D6178D6
:2036C0003A25584D00504944204D61783A25584400582D4F66667365743A25587800592D27
:2036E0004F66667365743A2558790042616E6742616E670050494400416374696F6E3A25A9
:203700006C610048656174696E672065787472756465720048656174696E6720626564007E
:203720004B696C6C6564005374657070657220646973626C00436F6E6669670073746F7205
:20374000656420454550524F4D00436F6E666967006C6F6164656420454550524F4D0055BC
:20376000706C6F6164696E672E2E2E004275666665723A256F420020453A2565632F2545E2
:203780006302437E256F430045313A2565302F25453002437E256F300045323A2565312FD7
:2037A00025453102437E256F310045333A2565322F25453202437E256F320020423A2565FE
:2037C000622F25456202437E256F6200537064206D756C2E3A256F6D25252500466C6F77CE
:2037E000206D756C2E203A256F662525250053686F77206D6561732E005265736574206D45
:203800006561732E00536574205A3D30005A2063616C69622E005365742050310053657492
:20382000205032005365742050330043616C63206C6576656C696E67004C766C2064656CAB
:20384000746100576169742074656D702E202558540243005761697420726574722E3A25C5
:203860005855206D6D0053442072656D6F76656400534420696E73657274656400507269B8
:203880006E7465722072656164792E00206461797320003A00005072696E74696E67207402
:2038A000696D650046696C616D656E74207072696E746564007072696E74656400415458A4
:2038C000206F6E2F6F666600446561642074696D6500536C772042670053746F70205072BD
:2038E000696E74005A20626162797374702E3A256F596D6D004368672066696C7400436853
:20390000672066696C7400526F7420746F206D6F760066696C2075702F646F776E00436CF1
:2039200069636B207768656E20646F6E65004175746F6C766C3A20256C6C00536572763AA0
:2039400020256F530049676E204D31303620636D642025466900436C69636B20746F20727B
:20396000656865617400657874727564005761697420666F72207467740074656D706572AC
:20398000617475726573202E2E0045787472206A616D005374616E646279004265642063B9
:2039A0006F6174696E670042656420636F6174696E672073657420746F00004E6F20636F57
:2039C0006174696E67004264546B004B6170746F6E00426C756520706170657220746170DD
:2039E0006500477265656E20504554207461706500476C756520737469636B004375737434
:203A00006F6D00437573746F6D3A256F436D6D004C616E6775616765000A202565302F2508
:203A20004530B020583A257830000E202565622F254562B020593A25783100466C6F773ACA
:203A4000FD20256F662525252020205A3A257832004D756C3A20256F6D25252520FD2020C8
:203A600020453A202578346D004275663A20256F4200256F7300052565632F2545630242C3
:203A80002565422F2545620200422565422F25456202005A3A2578322020427566203A2018
:203AA000256F42004D756C3A20256F6D202020453A25783400583A25783020593A25783117
:203AC0000025557400255566206D00255566206D207072696E74656400256F7300000525D7
:203AE00065632F254563020005256563020020256F436D6D0054656D702E2034203A25653F
:203B0000332F25453302430054656D702E2035203A2565342F25453402430054656D702E5A
:203B20002036203A2565352F2545350243005475726E20657874722E2034206F6666005446
:203B400075726E20657874722E2035206F6666005475726E20657874722E2036206F6666E4
:203B6000002558332053656C65637420657874722E2034002558342053656C6563742065FA
:203B80007874722E2035002558352053656C65637420657874722E203600254430204E6F35
:203BA00020636F7069657300254431203120636F707900254432203220636F70696573000C
:203BC000254433203320636F70696573005A2D70726F6265206865696768743A257A6800DA
:203BE00001290229042908291029202940298029012C022C01260226042608261026202600
:203C000040268026402C802C012302230423082310232023402380230120022004200820DA
:203C20001020202040208020102C202C012F022F042F082F102F202F402F802F7EFE7EFD1E
:203C40007EFB7EF77EEF7EDF7EBF7E7F00010000803C1200020000923C4300030000D53C7C
:203C60000401030904D93C1802030904F33C16030309040B3D0C0001C10201803601813611
:203C80001201000202000020C016830400010102030109024300020100C032090400000137
:203CA000020201000524001001052401000104240206052406000107058203080040090454
:203CC0000100020A0000000705030240000007058402400000040309041803540065006567
:203CE000006E00730079006400750069006E006F0000001603550053004200200053006570
:203D0000007200690061006C0000000C03310032003300340035000000494E46494E4954DC
:203D2000594E414ECDCCCC3D0AD7233C17B7D13877CC2B329595E6241FB14F0A0000204136
:203D40000000C84200401C4620BCBE4CCA1B0E5AAEC59D74348AA79FE0C3EEEC11241FBE6D
:203D6000CFEFD0E2DEBFCDBF12E0A0E0B1E0E2E3F3EE01E00BBF02C007900D92A836B107C8
:203D8000D9F71BBE15E1A8E6B2E001C01D92A331B107E1F71DE3CCE5DDE304C02297FE01A3
:203DA0000E9449F1C435D107C9F70E943CEB0C9497F10C940000A0E0B0E0E1EEFEE10C94A7
:203DC00066F1EC015B016115710519F0FB0191838083F9908F2D90E00E944DF1892BC9F732
:203DE000FDE2FF1621F4F990EE24E39405C02BE2F21609F4F990EE248E0101501040C8013D
:203E000069E17DE343E050E00E946A21892B01F58E010E5F1F4FC8016CE17DE345E050E099
:203E20000E946A21892B19F48E01095F1F4FA114B10419F0F50111830083E0FC04C070E0BF
:203E400090E080E814C070E090E080E86FEF08C1C80161E27DE343E050E00E946A21892BC7
:203E600069F4A114B10429F470E090E080EC6FE7F7C02296F501D183C083F6CF88249924B2
:203E800040E050E060E070E0EF2DE053EA30A0F5F2E0EF2A8E2D90E09C0128703070E2FE79
:203EA00006C0232B79F50894811C911C2BC0232B19F0089481089108DB01CA0112E0880F6A
:203EC000991FAA1FBB1F1A95D1F7480F591F6A1F7B1F440F551F661F771F4E0F511D611DF3
:203EE000711D483929E9520729E9620729E1720748F084E0E82A06C0EE3F31F4E3FC39C0AC
:203F000098E0E92AF990C0CFE53311F0E53189F529912D3219F4E0E1EE2A05C02B3219F027
:203F200081E090E003C0299182E090E0E22FE053EA3018F0C81BD90B1CC020E030E0FCE06C
:203F400020383F075CF4C901880F991F880F991F280F391F220F331F2E0F311DE991E053C1
:203F6000EA3068F3E4FE03C0309521953F4F820E931ECE2CDD24E1FE07C0A114B10421F0C1
:203F80002197F501D183C083CB01BA010E9466EE7B018C01F3E0CF22DD2423E0C216D104E1
:203FA00021F417FB109517F9109557016801C801B70120E030E040E050E00E94C6ED8823DE
:203FC00009F44AC097FE0DC028E3E22E2DE3F22E9094819491089394C0E2D0E000E010E012
:203FE00012C090E5E92E9DE3F92EF6CFF7012591359145915491C601B5010E94B3EF5B01AB
:204000006C018C1A9D0A8C169D0684F7D595C7950F5F1F4F0630110529F08CEF9FEFE80E20
:20402000F91EF1CFC501D6017C018D018C2D880F8D2D881F8F3F51F0C601B50120E030E0B4
:2040400040E050E00E94C6ED882331F482E290E090931215809311157E2D9F2D802F612FDE
:20406000272F392F482F562FB901CA01CDB7DEB7ECE00C9482F12F923F925F926F927F9274
:204080008F929F92AF92BF92CF92DF92EF92FF920F931F93CF93DF938C011B01EA01611526
:2040A000710519F0FB0191838083209749F0CE010297839728F020E030E040E050E0F6C0CE
:2040C000F801A1908F018A2D90E00E944DF1892BB9F7FDE2AF1631F4F801A1908F015524BF
:2040E000539407C0FBE2AF1619F4F801A1908F015524209719F0C031D105C1F4F0E3AF165C
:2041000079F4F8018081883711F0883549F4F801A1800E5F1F4FF2E05F2AC0E1D0E006C017
:20412000209721F480E3A816E9F427C0C830D10531F1C930D10524F4C230D10531F50CC03D
:20414000CA30D10589F0C031D105F9F4C12CD12CE12CB8E0FB2E28C0C12CD12CE12CA0E447
:20416000FA2E22C0CAE0D0E0FCECCF2EFCECDF2EFCECEF2EFCE0FF2E17C0C8E0D0E0C12CD7
:20418000D12CE12CE0E1FE2E0FC09E01442737FD4095542F60E070E080E090E80E94FEF0CB
:2041A000C901DA016C017D0120E030E040E050E060E03E01882477FC8094982C70EDB72E57
:2041C000BA0CE9E0EB1570F48A2D81548A3118F499ECB92E06C08A2D81568A3150F589EA66
:2041E000B82EBA0C8B2D90E08C179D0714F56F3FE1F0C216D306E406F506B0F0CA01B90161
:20420000A40193010E94ABF09B01AC012B0D311D411D511D2130F0E03F07F0E04F07F0E828
:204220005F0710F461E001C06FEFF801A1908F01C5CF2114310481F0662331F00150104040
:20424000F1011183008308C051FE1AC002501040F1011183008314C067FF12C050FC05C09C
:204260002FEF3FEF4FEF5FE704C020E030E040E050E882E290E0909312158093111516C015
:2042800050FE08C050954095309521953F4F4F4F5F4F0CC057FF0AC082E290E090931215EF
:2042A000809311152FEF3FEF4FEF5FE7B901CA01DF91CF911F910F91FF90EF90DF90CF9074
:2042C000BF90AF909F908F907F906F905F903F902F900895FB01DC014150504088F08D914A
:2042E00081341CF08B350CF4805E659161341CF06B350CF4605E861B611171F3990B0895B2
:20430000881BFCCFFB01DC0102C001900D9241505040D8F70895FB01DC010D900020E9F761
:20432000119701900D920020E1F70895FC018191861721F08823D9F7992708953197CF01E3
:204340000895FB01DC018D91019080190110D9F3990B0895FB01DC0101900D920020E1F780
:204360000895FB01DC014150504048F001900D920020C9F701C01D9241505040E0F7089559
:20438000FC0181E090E00190061609F4CF010020D1F701970895A0E0B0E0E1EDF1E20C9467
:2043A0006AF17C01EB018A01690109C0CE012196F6010995F70181937F010150104001151D
:2043C0001105A1F7CDB7DEB7E8E00C9486F1BF92CF92DF92EF92FF920F931F937B018C01A5
:2043E000FB010995B82EC8010196F7010995C82EC8010296F7010995D82EC8010396F701FA
:204400000995982F6B2D7C2D8D2D1F910F91FF90EF90DF90CF90BF900895DF92EF92FF92A1
:204420000F931F937B018C01FB010995D82EC8010196F7010995982F8D2D1F910F91FF9029
:20444000EF90DF900895A0E0B0E0E9E2F2E20C946AF1EC017B018A01690109C0CE0121967A
:20446000F70161917F01F60109950150104001151105A1F7CDB7DEB7E8E00C9486F1BF928F
:20448000CF92DF92EF92FF920F931F93D52EC62EB72E79018C01642FF9010995C801019676
:2044A0006D2DF7010995C80102966C2DF7010995C80103966B2DF70109951F910F91FF90CD
:2044C000EF90DF90CF90BF900895DF92EF92FF920F931F93D72E7A018C01FA010995C8015D
:2044E00001966D2DF70109951F910F91FF90EF90DF9008959C01F999FECF32BD21BDF89A30
:2045000080B508959C01F999FECF1FBA32BD21BD60BD0FB6F894FA9AF99A0FBE089508958B
:20452000609111017091120180911301909114016817790744F4709314016093130188E447
:2045400097E00E94AD390895AF92BF92CF92DF92EF92FF920F931F93CF93DF93EC0189317A
:2045600091051CF4C9E1D0E005C0893C910514F0C8ECD0E0D0938610C0938510E0917202ED
:20458000F0917302E458FF4FA080B180C280D380C601B50120E030E040E050E00E94C6ED83
:2045A0009E01442737FD4095542F18165CF0CA01B9010E9468EE2AE037ED43E25CE30E943A
:2045C000B3EF24C0CA01B9010E9468EE2AE037ED43E25CE30E94B3EF20E030E040E850E496
:2045E0000E94B3EF7B018C01C601B501A60195010E94B3EF2BED3FE049E450E40E94B3EF94
:204600009B01AC01C801B7010E94CDED6093420270934302809344029093450286E997E04C
:20462000BE010E94AD39DF91CF911F910F91FF90EF90DF90CF90BF90AF900895EF92FF92FA
:204640000F931F93CF93DF93EC01893191051CF4C9E1D0E006C081E0C53FD80714F0C4EFCA
:20466000D1E0BE01882777FD8095982F0E9468EE7B018C016091831070918410882777FD8E
:204680008095982F0E9468EE9B01AC01C801B7010E94CDED9B01AC0160917F1070918010C6
:2046A00080918110909182100E94B3EF60937F10709380108093811090938210D0938410FC
:2046C000C093831087E897E0BE010E94AD39DF91CF911F910F91FF90EF9008950E94616792
:2046E0009C0180911101909112012817390724F4309312012093110108950E94A8650895AB
:20470000EF92FF920F931F93DF93CF9300D000D0CDB7DEB77B018C0160930B1070930C1070
:2047200080930D1090930E100E947496E982FA820B831C8385E793E0BE016F5F7F4F44E0EA
:2047400050E022E832E20E94232281E195E0B801A70123E00E94E33A0E942C3B282FF99938
:20476000FECF88E690E092BD81BDF89A80B5281769F0F999FECF1FBA88E690E092BD81BDFF
:2047800020BD0FB6F894FA9AF99A0FBE0F900F900F900F90CF91DF911F910F91FF90EF904D
:2047A0000895DF93CF9300D000D0CDB7DEB760936B1070936C1080936D1090936E100E940F
:2047C000749640916B1050916C1060916D1070916E1085E295E023E00E94E33A80916B100F
:2047E00090916C10A0916D10B0916E1089839A83AB83BC8385E890E0BE016F5F7F4F44E0BD
:2048000050E022E832E20E9423220E942C3B282FF999FECF88E690E092BD81BDF89A80B572
:20482000281769F0F999FECF1FBA88E690E092BD81BD20BD0FB6F894FA9AF99A0FBE0F907C
:204840000F900F900F90CF91DF910895DF93CF9300D000D0CDB7DEB7609373107093741084
:2048600080937510909376100E9474964091731050917410609175107091761080E495E0BC
:2048800023E00E94E33A8091731090917410A0917510B091761089839A83AB83BC8389E899
:2048A00090E0BE016F5F7F4F44E050E022E832E20E9423220E942C3B282FF999FECF88E6A7
:2048C00090E092BD81BDF89A80B5281769F0F999FECF1FBA88E690E092BD81BD20BD0FB637
:2048E000F894FA9AF99A0FBE0F900F900F900F90CF91DF910895DF93CF9300D000D0CDB757
:20490000DEB760937B1070937C1080937D1090937E100E94749640917B1050917C1060913E
:204920007D1070917E108BE595E023E00E94E33A80917B1090917C10A0917D10B0917E10DE
:2049400089839A83AB83BC838DE890E0BE016F5F7F4F44E050E022E832E20E9423220E9486
:204960002C3B282FF999FECF88E690E092BD81BDF89A80B5281769F0F999FECF1FBA88E6AA
:2049800090E092BD81BD20BD0FB6F894FA9AF99A0FBE0F900F900F900F90CF91DF9108950F
:2049A0006F927F928F929F92AF92BF92CF92DF92EF92FF920F931F93DF93CF9300D000D055
:2049C000CDB7DEB760919D1070919E1080919F109091A0102FE632E143E85AE30E94B3EF0C
:2049E0007B018C01CE01019661E870E044E050E02AE732E20E94CB21C801B70129813A81C2
:204A00004B815C810E9462EDAB01BC018EEA97E022E00E94CE3A8FEC97E00E94A438E09117
:204A2000E501F091E601638574858585968520E030E040E751E40E94AFEF18160CF47AC00E
:204A40006624772443018DE790E06AE772E20E94E7217B018C01E60CF71C081D191DC80188
:204A6000B70120E831E541E050E00E9420F1922E832E742E652E622F732F842F952F20E804
:204A80003EEA4EEF5FEF0E94ABF05B016C01AE0CBF1CC01ED11E80EC97E0492D582D672D89
:204AA000762D0E94163AC601B50120E13EE040E050E00E9420F1122F032FF42EE52E82EDAB
:204AC00097E0422F502F6F2D7E2D0E94163A612F702F8F2D9E2D20EF31EF4FEF5FEF0E9423
:204AE000ABF0A60EB71EC81ED91EC601B5012CE330E040E050E00E9420F189ED97E0BA016E
:204B0000A9010E94163A81EE97E00E94B2380F900F900F900F90CF91DF911F910F91FF905C
:204B2000EF90DF90CF90BF90AF909F908F907F906F9008950FB6F8946091FD147091FE143B
:204B40008091FF14909100150FBE2091991030919A1040919B1050919C10621B730B840BD6
:204B6000950B28EE33E040E050E00E94FEF0C901DA013C014D0167CF2F923F924F925F92C2
:204B80006F927F928F929F92AF92BF92CF92DF92EF92FF920F931F93DF93CF93CDB7DEB7FA
:204BA0002C970FB6F894DEBF0FBECDBF9A878987A090AA0FB090AB0FC090AC0FD090AD0FB0
:204BC0006090AE0F7090AF0F8090B00F9090B10F2090B20F3090B30F4090B40F5090B50F91
:204BE000C601B501A60195010E946AF0882309F078C01C861B8686017501E89417F9C8018E
:204C0000B7012FEF3FEF4FE75FE70E946AF0882351F4C801B7012FEF3FEF4FE75FE70E943D
:204C2000C6ED181624F081E090E09C878B87AB85BC85119709F055C0C401B301A4019301A0
:204C40000E946AF0882309F04CC01C861B8684017301E89417F9C801B7012FEF3FEF4FE7DD
:204C60005FE70E946AF0882351F4C801B7012FEF3FEF4FE75FE70E94C6ED181624F0E1E061
:204C8000F0E0FC87EB878B859C85019751F5C201B101A20191010E946AF0882311F51C8647
:204CA0001B8682017101E89417F9C801B7012FEF3FEF4FE75FE70E946AF0882351F4C801D4
:204CC000B7012FEF3FEF4FE75FE70E94C6ED181624F0A1E0B0E0BC87AB87EB85FC8531977E
:204CE00021F089859A850E94B7382091D20F3091D30F4091D40F5091D50F8091D60F909120
:204D0000D70FA091D80FB091D90F8D839E83AF83B8878091DA0F9091DB0FA091DC0FB09168
:204D2000DD0F89839A83AB83BC838091560F882359F40F2EF0E0EF2EF0E0FF2EF0E80F2F46
:204D4000FFE31F2FF02D0AC00F2EF0E7EF2EF2E4FF2EF1E20F2FFDE31F2FF02DC601B5012F
:204D60000E9462EDA80197010E94B3EFAB01BC0182E597E022E00E94CE3A8091560F8823A9
:204D800059F40F2EF0E0EF2EF0E0FF2EF0E80F2FFFE31F2FF02D0AC00F2EF0E7EF2EF2E46B
:204DA000FF2EF1E20F2FFDE31F2FF02DC401B3012D813E814F8158850E9462EDA8019701A5
:204DC0000E94B3EFAB01BC0189E597E022E00E94CE3A8091560F882359F40F2EF0E0EF2EFD
:204DE000F0E0FF2EF0E80F2FFFE31F2FF02D0AC00F2EF0E7EF2EF2E4FF2EF1E20F2FFDE364
:204E00001F2FF02DC201B10129813A814B815C810E9462EDA80197010E94B3EFAB01BC01C5
:204E20008DE597E023E00E94CE3A2091A60F3091A70F4091A80F5091A90FA090630FB090FC
:204E4000640FC090650FD090660F8091560F882359F40F2EF0E0EF2EF0E0FF2EF0E80F2F9B
:204E6000FFE31F2FF02D0AC00F2EF0E7EF2EF2E4FF2EF1E20F2FFDE31F2FF02DCA01B90106
:204E80000E9468EEA60195010E94B3EFA80197010E94B3EFAB01BC0181E697E024E00E9427
:204EA000E33A2C960FB6F894DEBF0FBECDBFCF91DF911F910F91FF90EF90DF90CF90BF9081
:204EC000AF909F908F907F906F905F904F903F902F9008951F93182F0E942D8A80916D026C
:204EE0008823C9F010926D020E94485780911501815080931501882349F480916A028823CB
:204F000011F00E94964D85E08093150185EC93E1612F0E947DE11F91089509C00E944362AB
:204F200080E00E946A2785EC93E10E949EC38091460F882399F70895CF93DF9397FD10C080
:204F4000EC018F3F910521F01CF0CFEFD0E002C0009731F08091E10F88608093E10F07C048
:204F60008091E10F877F8093E10FC0E0D0E0662311F00E948D278091600390E0C817D90754
:204F8000D1F084EA97E0BE010E94AD3980916802882389F420916003822F90E08C179D0705
:204FA00054F4C535D1053CF4222311F082E001C088E080936802C0936003DF91CF91089538
:204FC0002F923F924F925F926F927F928F929F92AF92BF92CF92DF92EF92FF920F931F933F
:204FE000DF93CF9300D000D0CDB7DEB75C01FC01808591858A35910509F4FDC08B3591054A
:20500000B8F48430910509F45FC08530910520F4029708F01CC62DC08531910509F4A4C012
:205020008C31910509F4A3C0449709F010C698C08338910509F480C38438910568F48C35BB
:20504000910509F4F9C08C35910508F4E3C08436910509F0FCC5B9C18538910509F4C6C4B0
:205060008538910508F4CEC38738910509F0EFC5BEC5F5018081918192FF11C0868D978D29
:20508000A0A1B1A12091DF0F0097A105B10519F0822F806202C0822F8F7D8093DF0FC50109
:2050A0000E947E8F882359F081E061E041E00E949C80882321F485EE94E00E94D13881E019
:2050C00061E00E94437BCEC50E948D27F5012081318133FD05C060E070E080E090E005C0E3
:2050E000F50162A173A184A195A132FF0BC0F501668D778D80A191A128EE33E040E050E093
:205100000E94ABF00FB6F894E090FD14F090FE140091FF14109100150FBEE60EF71E081F97
:20512000191F05C00E94436281E00E946A270FB6F8948091FD149091FE14A091FF14B0916C
:2051400000150FBE37014801681A790A8A0A9B0AD401C30180509449A543B74718F382C530
:2051600081E08093560F7EC51092560F7BC5F50120813181C90188739070892B11F080E0A9
:2051800008C0C90156E0969587955A95E1F78095817026FF08C01092A60F1092A70F1092F5
:2051A000A80F1092A90F882321F041E051E061E01EC0F50120813181C90188739070892BEF
:2051C00009F41CC3C90143E0969587954A95E1F7582F5170C90134E0969587953A95E1F7F4
:2051E000682F617025FD02C040E001C041E0852F0E94869403C31092980F25E5622E712CAB
:20520000A60CB71CF5018081882309F42BC580ED94E00FC081E08093980F95E5692E712C01
:20522000A60CB71CF5018081882309F41BC58BEB94E00E94C43816C5D090D20FE090D30F74
:20524000F090D40F0091D50F7090D60F8090D70F9090D80FC090D90F3090DA0F4090DB0FF9
:205260005090DC0F6090DD0FF501108113FF22C022853385448555858091560F882351F0A8
:20528000CA01B90123E333E34BEC51E40E94B3EF9B01AC01CA01B9012091AA0F3091AB0F0A
:2052A0004091AC0F5091AD0F0E9461EDD62EE72EF82E092F14FF23C0F50126853785408942
:2052C00051898091560F882351F0CA01B90123E333E34BEC51E40E94B3EF9B01AC01CA012D
:2052E000B9012091AE0F3091AF0F4091B00F5091B10F0E9461ED762E872E982EC92E15FFBC
:2053000023C0F50122893389448955898091560F882351F0CA01B90123E333E34BEC51E433
:205320000E94B3EF9B01AC01CA01B9012091B20F3091B30F4091B40F5091B50F0E9461ED3D
:20534000362E472E582E692E2D2D3E2D4F2D502FB901CA01E72DF82DA92DBC2D9F01AD01CC
:20536000E32DF42DA52DB62D7F018D010E943289F501808186FF76C426893789408D518D0C
:205380008091560F882351F0CA01B90123E333E34BEC51E40E94B3EF9B01AC01CA01B9018C
:2053A000209100023091010240910202509103020E94B3EF0E9435EE6093A60F7093A70F51
:2053C0008093A80F9093A90F4DC46090B20F7090B30F8090B40F9090B50FC401B3012091C3
:2053E0007710309178104091791050917A100E94CDED2DEC3CEC4CEC5DE30E94AFEF181695
:205400002CF485E894E00E94B7382CC4F50182812081318182FFB6C023FD05C020733070AF
:20542000232B09F449C48BE594E061C1C801B70120E030E040E050E00E94AFEF18165CF46F
:20544000C801B70120E030E040E251E40E94C6ED1816F4F00AC0C801B70120E030E040E280
:2054600051EC0E94AFEF88239CF0CE01019665E773E044E050E02AE732E20E94CB21C801A3
:20548000B70129813A814B815C810E9462ED51C082E394E02CC16091AA0F7091AB0F809108
:2054A000AC0F9091AD0F20E030E040E050E00E94C6ED882309F063C06091AE0F7091AF0F6B
:2054C0008091B00F9091B10F20E030E040E050E00E94C6ED882309F052C08091DE0F87FF2C
:2054E0002BC0E090FF0FF0900010009101101091021060918B0F70918C0F80918D0F909169
:205500008E0F0E9466EE9B01AC010E94B3EF9B01AC01C801B7010E9461ED0E9420F020914E
:205520005F0F3091600F4091610F5091620F0E94B3EF0E948023DDC0E090FF0FF090001006
:20554000009101101091021020918B0F30918C0F40918D0F50918E0FCA01B9010E94ABF0A2
:20556000E61AF70A080B190BC801B7010E94A664A0E0B0E0BC01CD010E9466EED0CF8FEF18
:2055800093E0B5C023FF39C0F501E284F38404851585C801B70120E030E040E050E00E948F
:2055A000AFEF18165CF4C801B70120E030E040E251E40E94C6ED18165CF00DC0C801B701CA
:2055C00020E030E040E251EC0E94AFEF87FF03C0DD24D39413C0C801B701A40193010E943C
:2055E00062ED20916B1030916C1040916D1050916E100E9462ED0E94D123DD24F5018081C7
:2056000084FF38C0E684F78400891189C801B70120E030E040E050E00E94AFEF18165CF468
:20562000C801B70120E030E040E251E40E94C6ED18165CF00DC0C801B70120E030E040E233
:2056400051EC0E94AFEF87FF03C0DD24D39412C0C801B701A40193010E9462ED209173106B
:205660003091741040917510509176100E9462ED0E942624F501808185FF35C0E288F388F6
:2056800004891589C801B70120E030E040E050E00E94AFEF18165CF4C801B70120E030E0AF
:2056A00040E251E40E94C6ED1816FCF00AC0C801B70120E030E040E251EC0E94AFEF88237F
:2056C000A4F0C801B701A40193010E9462ED20917B1030917C1040917D1050917E100E9493
:2056E00062ED0E947B24DD2021F086ED93E00E94B73800D000D080EF93E2A4E7B9E4EDB745
:20570000FEB781839283A383B483BC01CD019B01AC010F2EF0E0EF2EF0E0FF2EF0E40F2F51
:20572000F1E41F2FF02D5B016C010E948E8E0F900F900F900F9096C26091AA0F7091AB0F69
:205740008091AC0F9091AD0F2091AE0F3091AF0F4091B00F5091B10FE090B20FF090B30F0F
:205760000091B40F1091B50F60907F107090801080908110909082100F2EF0E0AF2EF0E054
:20578000BF2EF0E0CF2EF0E0DF2EF02DA0928B10B0928C10C0928D10D0928E10A0928F10EA
:2057A000B0929010C0929110D092921000D000D0A0901402B0901502C0901602D0901702F2
:2057C000EDB7FEB7A182B282C382D4820F2EF0EFAF2EF3E2BF2EF4E7CF2EF9E4DF2EF02DE4
:2057E0000E940C9360927F107092801080928110909282100F900F900F900F9080E00E9480
:20580000538930C280E00E942B8A80E090E0A0E0B0E08093D20F9093D30FA093D40FB093D1
:20582000D50F8093D60F9093D70FA093D80FB093D90F8093DA0F9093DB0FA093DC0FB093D4
:20584000DD0F60911C0270911D0280911E0290911F020E943B8BC0903F10D0904010E09093
:205860004110F09042100091431010914410209145103091461040913B1050913C106091D5
:205880003D1070913E10D901C8014801FA2FEB2F0C151D052E053F052CF4D701C60146017D
:2058A000FA2FEB2FC401AF2FBE2F84179507A607B70714F4DB01CA013C014D016C187D0830
:2058C0008E089F08740163013C014D01601A710A820A930A1C012D01241A350A460A570A90
:2058E00083E09AE0B701A6010E94EA398CE09AE0B401A3010E94EA3985E19AE0B201A1016E
:205900000E94EA39F5018081918192FF6AC1868D978DA0A1B1A1181619061A061B060CF0A9
:2059200060C18DE793E0B60142E852E20E9465220E942C3B282FF999FECF88E690E092BD35
:2059400081BDF89A80B5281769F0F999FECF1FBA88E690E092BD81BD20BD0FB6F894FA9A45
:20596000F99A0FBE8FE793E0B30142E852E20E9465220E942C3B282FF999FECF88E690E006
:2059800092BD81BDF89A80B5281769F0F999FECF1FBA88E690E092BD81BD20BD0FB6F8944A
:2059A000FA9AF99A0FBE81E893E0B10142E852E20E9465220E942C3B282FF999FECF88E6B1
:2059C00090E092BD81BDF89A80B5281709F409C1F999FECF1FBA88E690E092BD81BD20BD7D
:2059E0000FB6F894FA9AF99A0FBEFBC00091DE0F10E085E0169507958A95E1F7017080E0C5
:205A00000E942B8A10929A0F10929B0F10929C0F10929D0F10929E0F10929F0F1092A00F0D
:205A20001092A10F1092A20F1092A30F1092A40F1092A50F80E090E0A0E0B0E08093D20FEE
:205A40009093D30FA093D40FB093D50F8093D60F9093D70FA093D80FB093D90F8093DA0FC2
:205A60009093DB0FA093DC0FB093DD0F1092870F1092880F1092890F10928A0F10928B0FAA
:205A800010928C0F10928D0F10928E0F10928F0F1092900F1092910F1092920F60911C0237
:205AA00070911D0280911E0290911F020E943B8B40915710509158106091591070915A10A5
:205AC00048515C4F6F4F7F4F8091631090916410A0916510B0916610481B590B6A0B7B0BBE
:205AE0008091431090914410A0914510B09146106A017B01C81AD90AEA0AFB0A80913B10AF
:205B000090913C10A0913D10B0913E104A015B01881A990AAA0ABB0A80913F1090914010D5
:205B2000A0914110B0914210481B590B6A0B7B0B83E09AE00E94EA398CE09AE0B701A601A7
:205B40000E94EA3985E19AE0B501A4010E94EA39802F0E942B8A00D000D000D0CDB6DEB6F3
:205B60000894C11CD11C6091FC017091FD018091FE019091FF0120E030E040EA50EC0E9489
:205B8000B3EF0E9435EE7B018C0160911C0270911D0280911E0290911F0220E030E040E4BF
:205BA00050E40E94CDEDF601608371838283938381E08483158260E070E080E090E020E00D
:205BC00030E040E050E0AA24BB2465010E9427882DB73EB72A5F3F4F0FB6F8943EBF0FBEF6
:205BE0002DBF81E061E041E00E9486943BC04091870F5091880F6091890F70918A0F8BECC6
:205C000093E00E94163A40918B0F50918C0F60918D0F70918E0F82EF97E00E94163A409162
:205C20008F0F5091900F6091910F7091920F82EF97E00E94EA3980E00E9453898DEB93E09D
:205C40000E94A43887EB93E00E94BC250BC08091400282FF07C087E397E00E94A438C501D3
:205C60000E947B600FB6F8948091FD149091FE14A091FF14B09100150FBE8093550390930C
:205C80005603A0935703B09358030F900F900F900F90CF91DF911F910F91FF90EF90DF9067
:205CA000CF90BF90AF909F908F907F906F905F904F903F902F900895F501E6A4F7A400A9DE
:205CC00011A9C801B70120E030E040E050E00E94C6ED882309F0AACBDECB0F931F93DF934C
:205CE000CF930F92CDB7DEB7182FE0917202F091730240A951A962A973A985E697E022E078
:205D00000E94CE3AE0917202F091730244A955A966A977A984E897E020E00E94CE3A0E94B5
:205D2000764AAB01BC0188E697E022E00E94CE3A4091A3015091A4016091A5017091A6016F
:205D400084E897E020E00E94CE3A112391F08BE797E061E070E00E94D6396CEF7FE080910B
:205D60009B0190919C01681B790B80E897E00E94D639E0919801F0E0E35AFC4F608186E782
:205D800097E070E00E94D639E0911601EF3F29F4E0917202F0917302E081F0E0E35AFC4F24
:205DA00060818CE697E070E00E94D6398DE0898385E095E18E010F5F1F4FB80141E050E04F
:205DC0000E94D7EB8AE0898385E095E1B80141E050E00E94D7EB0F90CF91DF911F910F91E1
:205DE0000895AF92BF92CF92DF92EF92FF920F931F93CF93DF93EC018E819F8187379105F8
:205E000009F476C58837910508F09DC08235910509F41DC28335910508F048C08B319105D7
:205E200009F482C18C319105E0F48731910509F443C18831910568F48531910509F432C1C5
:205E40008631910508F033C1449711F00C94A23724C18931910509F447C14A9708F04AC196
:205E60003EC18032910509F483C18132910570F48D31910511F40C94BD378D31910508F4B0
:205E800058C14E9711F00C94A23760C18A32910509F480C18A32910510F40C94A237803555
:205EA000910510F40C94A2370C94BD378A36910509F4AEC48B36910518F58C35910509F4BE
:205EC0000AC28D35910570F48435910509F4C6C18435910508F4BEC18535910511F00C94AC
:205EE000A237D9C18836910509F483C28936910508F032C38336910511F00C94A2372DC29F
:205F00008237910509F4DDC48337910570F48D36910509F42CC38F36910509F498C48B3626
:205F2000910511F00C94A23788C48437910509F462C48437910508F4BDC48537910511F070
:205F40000C94A237C3C421E08931920709F4D0C631E08A31930708F048C08C3C910509F499
:205F6000CEC58D3C910500F5883C910509F4D4C4893C910570F48C38910509F4AEC28E3BFC
:205F8000910509F45AC38837910511F00C94A237B8C48A3C910509F460C5288139818B3C5E
:205FA000910508F099C51BC5813D910509F41BC6823D910568F48E3C910509F4E1C58E3C65
:205FC000910508F4DAC58F3C910509F0BBC7DCC58D3D910509F435C68B3F910509F442C656
:205FE0008C3D910509F0AEC71BC641E08239940709F40CC751E08339950738F521E083363C
:20600000920709F4E5C631E08436930778F441E08F32940709F494C651E08E35950709F40D
:20602000D2C68E52914009F08DC767C631E08039930709F4E5C641E08139940708F0E3C67A
:206040008856914009F07EC7D8C622E08935920709F426C732E08A35930778F441E0853FB6
:20606000940709F40BC751E0863F950709F415C7845F914009F066C7F9C632E08B35930746
:2060800009F45CC742E08B35940708F41AC78B589340049708F056C770C789E291E10E946A
:2060A00023A16BC789E291E10E940CA666C789E291E10E94689F61C78881998197FF5DC701
:2060C00089E291E160E00E94BAB1CE5ADF4F6881798189E291E140E00E948CA04EC789E212
:2060E00091E10E94809F49C789E291E160E00E94EDA443C78881998192FF3FC74E8D5F8D82
:2061000068A179A180919311882309F436C740938A1150938B1160938C1170938D1189E675
:2061200091E10E944BAF29C789E291E10E9467A024C78881998197FF20C7CE5ADF4F688111
:20614000798189E291E10E9425A017C78881998197FF13C789E291E160E00E94BAB1CE5A3E
:20616000DF4F6881798189E291E10E94D69F05C78881998197FF01C789E291E160E00E940E
:20618000BAB1CE5ADF4F6881798189E291E10E94AC9FF3C64881598153FFEFC6EAA0FBA009
:2061A00020E030E0F901EC5BFD4FE4918E2F90E08E159F0509F446C02F5F3F4F2B313105A8
:2061C00089F7F7FC3FC052FF2AC08E8D9F8DA8A1B9A18F3F9105A105B10509F0D8F48E2DE8
:2061E0000E947AE59E8D2F8DEE2DF0E0092E0E94E9E58E2D692F722F0E946CE881E198E061
:20620000B7010E94D6396E8D7F8D8AE298E00E94AD39B3C68CE393E00E94B738AEC68E2D87
:206220000E94B3E58AE298E0B7010E94D639EE2DF0E00E94E5E68FE298E06E2F70E00E9407
:20624000AD399BC68AE093E00E94B73896C61092990F93C681E08093990F8FC688819981F6
:2062600092FF13C06E8D7F8D88A199A128EE33E040E050E00E94ABF06093EA017093EB01CD
:206280008093EC019093ED0178C60E948D2781E00E94B69572C68881998192FF13C06E8D51
:2062A0007F8D88A199A128EE33E040E050E00E94ABF06093590370935A0380935B03909376
:2062C0005C035BC61092590310925A0310925B0310925C0352C6888183FF0CC08A859B85A2
:2062E000AC85BD858093F4019093F501A093F601B093F701888184FF0CC08E859F85A889E5
:20630000B9898093F8019093F901A093FA01B093FB01888185FF0CC08A899B89AC89BD899A
:206320008093FC019093FD01A093FE01B093FF010E947496888186FF20C6E0917202F09131
:2063400073028E899F89A88DB98D85879687A787B08B80810E94985510C60881198112FDE4
:2063600005C060E177E280E090E00AC06E8D7F8D88A199A128EE33E040E050E00E94ABF004
:2063800003FD779A04FD769A05FD479A0FB6F894E090FD14F090FE140091FF14109100153A
:2063A0000FBEE60EF71E081F191F02C00E940A960FB6F8948091FD149091FE14A091FF14BA
:2063C000B09100150FBEA8019701281B390B4A0B5B0BDA01C901805A9648A140B04030F3C6
:2063E000288123FD779824FD769825FFC6C54798C4C50E94544D882309F0BFC50FB6F894C3
:206400008091FD149091FE14A091FF14B09100150FBE8093550390935603A0935703B09309
:2064200058038091400283FDA8C58881998193FD0AC092FF0AC08E8D9F8DA8A1B9A1009768
:20644000A105B10511F40E948D272881398132FF94C531FF83C5CC5ADF4F8881C455D0409A
:20646000882309F07BC5EE8CFF8C08A119A130FD02C0DD240FC0DD246A8D7B8D8C8D9D8DCE
:2064800020E030E040E050E00E94AFEF181614F4DD24D394C801B7010E9468EE40E02D2DCB
:2064A00000E00E94685269C5DD246A8D7B8D8C8D9D8D20E030E040E050E00E94AFEF181661
:2064C00014F4DD24D394C801B7010E9468EE4C2D2D2D00E00E94685250C50E94544D8823C1
:2064E00009F04BC50FB6F8948091FD149091FE14A091FF14B09100150FBE809355039093F8
:206500005603A0935703B09358038091400283FD34C58881998192FF30C5EE8CFF8C08A1D4
:2065200019A190FD02C0DD240FC0DD246A8D7B8D8C8D9D8D20E030E040E050E00E94AFEF9F
:20654000181614F4DD24D394C801B7010E9468EE4D2D0E949A4D11C58881998163E09695BA
:2065600087956A95E1F781700E946D2E06C50E94544D882309F001C50FB6F8948091FD140F
:206580009091FE14A091FF14B09100150FBE8093550390935603A0935703B093580380913E
:2065A000400283FDEAC40E948D27E0917202F09173022881398131FF09C0CC5ADF4F888181
:2065C000C455D040882311F4E7E1F1E032FF21C0EE8CFF8C08A119A1C08030FD02C0DD249F
:2065E0000FC0DD246A8D7B8D8C8D9D8D20E030E040E050E00E94AFEF181614F4DD24D3944B
:20660000C801B7010E9468EE4C2D2D2D01E00E9468520FB6F8948091FD149091FE14A0911A
:20662000FF14B09100150FBE8093550390935603A0935703B0935803A0C48091400283FDDB
:206640009CC482EA90E00E9432E4BC0185EC93E140E00E942DC285EC93E10E9473D70E9480
:206660008D278881998192FF1EC0EE8CFF8C08A119A190FD02C0DD240FC0DD246A8D7B8D4D
:206680008C8D9D8D20E030E040E050E00E94AFEF181614F4DD24D394C801B7010E9468EE00
:2066A0004D2D0E949A4D60919F017091A0018091A1019091A2012091A3013091A4014091A1
:2066C000A5015091A6010E9461ED7B018C0120E030E040E050E00E94AFEF18165CF4C801AC
:2066E000B70120E030E040E450E40E94C6ED882364F443C4C801B70120E030E040E450EC2A
:206700000E94AFEF18160CF438C40FB6F894E090FD14F090FE140091FF14109100150FBE84
:206720002DC00FB6F8948091FD149091FE14A091FF14B09100150FBE8E199F09A00BB10BA9
:20674000895E9340A040B040B0F080E00E946D2E0FB6F894E090FD14F090FE140091FF146A
:20676000109100150FBEE0925503F0925603009357031093580381E00E946A27A090A3019E
:20678000B090A401C090A501D090A60160919F017091A0018091A1019091A20120E030E05D
:2067A00040E05FE30E9462EDA60195010E94C6ED88235CF4C601B50120E030E048EC51E403
:2067C0000E94AFEF18160CF4ACCF10922E140FB6F8948091FD149091FE14A091FF14B091C1
:2067E00000150FBE8093550390935603A0935703B0935803C2C38091E5019091E6010E947F
:20680000DC518091E7019091E8010E94DC51B5C38091E00F83FDB1C32881398132FD03C0B8
:206820008FEF90E002C08E8D9F8D632F66956695669561700E949C27A0C369816695669565
:206840006695617080E090E00E949C2796C38881998192FF03C08E8D8093400288819981D4
:2068600093FF12C06AA17BA18CA19DA120914002161617061806190614F4262B03C0862FD8
:2068800081502823209340028091400283FF75C360E070E080E090E040E020E000E00E94D8
:2068A000685260E070E080E090E040E020E00E94685263C386E795E00E94B2380E94D02418
:2068C0005CC384E093E00E94BC2557C38881998197FF53C3CE5ADF4F6881798185EC93E138
:2068E00040E00E9459C285EC93E10E9473D745C30E948D270E9415890E9415890E94CC9C02
:206900003CC38881998192FF38C393FF36C38E8D6AA10E9464BF31C3E0917202F091730284
:2069200020818881998191FF08C0CC5ADF4F8881C455D040882309F420E08A8182FD0BC0B8
